:100000000A128A11E32F8312031307150800F40163
:100010007308840083130008031908001030740269
:10002000031808007308840000080A128A115C2172
:100030000A128A110130F3070130F40708288312ED
:1000400003130608F00004300310F00CFF3E031DFC
:1000500024287008F1000130F1057108031D3728CC
:1000600003305202031838280130D2073828D20151
:1000700003305206031D4A286303031D4A2801303A
:10008000D3065308031949286414E414640888004B
:100090000715E3017103031D08000130E3000800A8
:1000A000F401F50170087104031985280130F60088
:1000B000F11B642801300310F00DF10DFF3E031D0C
:1000C0005B280130F607582801300310F40DF50DB8
:1000D000FF3E031D652871087302031D7128700817
:1000E0007202031C7A287008F2027108031CF303E1
:1000F000F302741401300310F10CF00CFF3E031DE9
:100100007B280130F602031D64287508F10074088D
:10011000F0000800F400C730831203139F05740831
:100120000739F20002300310F20DFF3E031D932841
:100130000310720D9F041030F200F20B9D28000096
:10014000831203131F151F08F20002300310F20C74
:10015000FF3E031DA6287218A3281E08F200F30113
:100160007208F300F2017208F5007308F6008316B6
:1001700003131E08F200F3017208F5047308F60475
:10018000FF30F5050330F6057608F1007508F0003C
:100190000800F501F31FD328F209F309F20A031945
:1001A000F30A0130F500F11FDA28F009F109F00A2D
:1001B0000319F10A70087104031905290130F400CC
:1001C000F11BEC2801300310F00DF10DFF3E031D73
:1001D000E3280130F407E02871087302031DF228B8
:1001E00070087202031CFA287008F2027108031CDE
:1001F000F303F30201300310F10CF00CFF3E031D7A
:10020000FB280130F402031DEC28750803190D29A1
:10021000F209F309F20A0319F30A7308F1007208EC
:10022000F00008000A128A1156220A128A1183125B
:100230000313A0001A30FB00F830FA00FA0B1E2955
:10024000FB0B1E2900000A128A1156220A128A117B
:1002500083120313A1001A30FB00F830FA00FA0BE6
:100260002F29FB0B2F2900000A128A1156220A128D
:100270008A1183120313A200200A03194429210AB8
:10028000031D220A031D4629FF3008002108F00043
:100290002208F10020080A128A154F270A128A1133
:1002A00083120313A3001E302302031C59290030BC
:1002B000080023081E3C0800F20083120313641593
:1002C00064088800F0307205F00064080F3970048B
:1002D000E40064088800E415640888000630F00033
:1002E000F00B70290000F73083120313E405640853
:1002F00088000630F000F00B7B2900007208F00047
:1003000004300310F00DFF3E031D8129F03070050D
:10031000F1008312031364080F397104E4006408C8
:100320008800E415640888000630F000F00B962978
:100330000000F73083120313E405640888000630D8
:10034000F000F00BA12900000630F1003030F00081
:10035000F00BA829F10BA82900000800F200FB30DF
:1003600083120313E40564088800F0307205F0007E
:1003700064080F397004E40064088800E415640818
:1003800088000630F000F00BC3290000F73083121C
:100390000313E405640888000630F000F00BCE2952
:1003A00000007208F00004300310F00DFF3E031D42
:1003B000D429F0307005F1008312031364080F395B
:1003C0007104E40064088800E415640888000630BD
:1003D000F000F00BE9290000F73083120313E40565
:1003E000640888000630F000F00BF42900000630A5
:1003F000F1003030F000F00BFB29F10BFB2900007D
:100400000800FB01F71F0B2AF609F709F60A031982
:10041000F70A0130FB00F91F142AF809F909F80A54
:100420000319F90A0130FB06FC01FD017608770487
:100430000319492A0130FA00F71B282A013003105A
:10044000F60DF70DFF3E031D1F2A0130FA071C2A87
:1004500001300310FC0DFD0DFF3E031D292A770816
:100460007902031D352A76087802031C3E2A760895
:10047000F8027708031CF903F9027C140130031019
:10048000F70CF60CFF3E031D3F2A0130FA02031D54
:10049000282A7B080319512AFC09FD09FC0A0319C3
:1004A000FD0A7D08F7007C08F6000800831203139C
:1004B00087150630F700F70B5B2A0000F730831230
:1004C00003138705F801F901831203130608F700E7
:1004D00001300310F70CFF3E031D692A7718812AAB
:1004E000712A722A0130F8070318F90A0030F90757
:1004F00030307902D53003197802031C642AFF30AA
:100500000800F801F901831203130608F70001300F
:100510000310F70CFF3E031D882A771C9F2A902AA0
:10052000912A0130F8070318F90A0030F907303032
:100530007902D5300319780203187F2A832A3A30CA
:10054000F0000030F1000310780DF200790DF30097
:100550000A128A11502070080800663083120313B3
:10056000A3000230A40000302102F630031920025B
:100570000318BC2A643008000230210266300319D7
:100580002002031CC52A003008007130F60001303B
:10059000F70020080B3EF00021080318013EFF3E43
:1005A000F1006430F2000030F3000A128A150B27C4
:1005B0000A128A117108F9007008F8000A128A11EB
:1005C00001220A128A11643083120313A2007608F2
:1005D0002202A50077090318013EA600A61FF22AF1
:1005E000A501A6012608803AFF0080307F02031D86
:1005F000FB2A65302502031C032B6430831203138E
:10060000A5000030A60083120313250808008312FA
:100610000313B401A11F172BA009A109A00A0319F4
:10062000A10A2D300A128A115C210A128A11831242
:10063000031320082104031D4F2B30300A128A11A6
:100640005C210800831203133408253E84000A301D
:10065000F0000030F1002108F3002008F2000A1237
:100660008A11C9200A128A117008303E8313800053
:10067000013083120313B4070A30F6000030F7008C
:100680002108F9002008F8000A128A1101220A1232
:100690008A11770883120313A1007608A0002108AD
:1006A000803AFF0080307F02031D582B013020026A
:1006B0000318222B831203133408B300B401330848
:1006C00034020318782B2530A2003408A202330824
:1006D0002207A3002308FF3E840083130008A40020
:1006E00034082C3E8400240880000130B4075F2BBE
:1006F00033082C3E8400831380012C30F3000A124F
:100700008A1107200800743084000530FF00800142
:10071000840AFF0B872BFE30831603138605FE30F9
:100720008312031386052F30F300BF30F200F20B63
:10073000972BF30B972B9C2B831203130614133068
:10074000F200F20BA12BA42B831603130614FB015A
:10075000FC0183120313061CBD2BAE2BAF2B013003
:10076000FB070318FC0A0030FC0700307C02C9308C
:1007700003197B0203180800A92BFB01FC0183125B
:1007800003130618D32BC42BC52B0130FB0703180A
:10079000FC0A0030FC0700307C02C93003197B02E0
:1007A00003180800BF2BFB01FC0183120313061C76
:1007B000E92BDA2BDB2B0130FB070318FC0A003096
:1007C000FC0700307C02C93003197B0203180800C3
:1007D000D52BF901FA01FB01FC0183120313061862
:1007E000012CF22BF32B0130FB070318FC0A00301D
:1007F000FC0700307C02C93003197B020318080093
:10080000ED2B1730F200F20B032C83120313061C9E
:100810002F2C7908743E84000130F2007A08073CDE
:10082000013E142C0310F20DFF3E031D122C720822
:100830008004FB01FC0183120313061C2F2C202CC7
:10084000212C0130FB070318FC0A0030FC070030A4
:100850007C02C93003197B02031808001B2C0130ED
:10086000FA0708307A02031CEB2B0130F907053038
:100870007902031CEA2B76087507F20077087207E5
:10088000F300740873077806031D080070088400DD
:1008900074088313800071088400760880000800C3
:1008A000FB30831603138805F7308805EF30880581
:1008B000DF308805BF3088057F3088053430F4008C
:1008C000F130F300F30B622CF40B622C672CFB303D
:1008D00083120313E4056408880064080F39303874
:1008E000E40064088800E415640888000630F3001A
:1008F000F30B782C0000F73083120313E40564082F
:1009000088000630F300F30B832C00000D30F40058
:10091000FB30F300F30B8A2CF40B8A2C8F2C831200
:10092000031364080F393038E40064088800E415C4
:10093000640888000630F300F30B9C2C0000F730AD
:1009400083120313E405640888000630F300F30BF8
:10095000A72C00000330F4009730F300F30BAE2C0B
:10096000F40BAE2CB32C8312031364080F39303808
:10097000E40064088800E415640888000630F30089
:10098000F30BC02C0000F73083120313E405640856
:1009900088000630F300F30BCB2C00000330F4008A
:1009A0009730F300F30BD22CF40BD22CD72C8312FC
:1009B000031364080F392038E40064088800E41544
:1009C000640888000630F300F30BE42C0000F730D5
:1009D00083120313E405640888000630F300F30B68
:1009E000EF2C00000330F4009730F300F30BF62CEB
:1009F000F40BF62CFB2C28300A128A11AE210A12B5
:100A00008A1108300A128A11AE210A128A110130A5
:100A10000A128A11AE210A128A110630F40030300F
:100A2000F300F30B112DF40B112D000006300A1208
:100A30008A11AE210A128A110C300A128A11AE21D3
:100A4000080083120313C3018430831603139F002D
:100A5000073085008312031386011B3083160313AE
:100A6000860080308700880189017F3081058312EC
:100A70000313640888000715F7308705FD308705E4
:100A8000FE308705EF3087050717FB308605FD3000
:100A90008905FB3089050A128A15D8260A128A119F
:100AA0000A128A158B260A128A110A128A115024F8
:100AB0000A128A110A128A1581260A128A110A124A
:100AC0008A1571260A128A110A128A15A4260A1298
:100AD0008A11F301F30A01300A128A15EB260A1271
:100AE0008A11D530F3008830F4000A128A1576276F
:100AF0000A128A11F301F30A02300A128A15EB2650
:100B00000A128A11E630F3008830F4000A128A15BE
:100B100076270A128A1183120313C201023083124C
:100B20000313C1000430C000B930BF00BF0B962DC5
:100B3000C00B962DC10B962D9D2D013083120313F2
:100B4000C20714304202031C8E2DF301F30A013058
:100B50000A128A15EB260A128A110830F30089302E
:100B6000F4000A128A1576270A128A1183120313D7
:100B70004308BF00C0013F08A0004008A1000A12BE
:100B80008A1107230A128A11D030F3008830F4004A
:100B90000A128A1576270A128A11F301F30A023023
:100BA0000A128A15EB260A128A11C430F300883023
:100BB000F4000A128A1576270A128A118312031387
:100BC00043080A128A11CC260A128A1183120313CF
:100BD00043080A128A11F3250A128A11013083127E
:100BE0000313C306A52D83120313BB0000300A12A2
:100BF0008A118A200A128A11710883120313A10034
:100C00007008A0000A128A11AD220A128A118312FA
:100C10000313BC0002300A128A118A200A128A11B8
:100C20007108F8007008F7000A128A152C270A12BA
:100C30008A11780883120313B9007708B8000A12E2
:100C40008A1112210A128A1183120313BA003D304D
:100C5000F0006530F1000A128A1183230A128A110A
:100C6000831203136508F2003D08F3003908F5000C
:100C70003808F4003A08F6003C080A128A15D02712
:100C80000A128A11831203133B080A128A15C62618
:100C90000A128A11F301F30A01300A128A15EB26AF
:100CA0000A128A112F30F3008930F4000A128A15D3
:100CB00076270A128A11831203133B08B500B60186
:100CC0003508A0003608A1000A128A1107230A126B
:100CD0008A113B30F3008930F4000A128A15762716
:100CE0000A128A11831203133C08B500B6013508B5
:100CF000A0003608A1000A128A1107230A128A11DD
:100D00003630F3008930F4000A128A1576270A1269
:100D10008A11831203136508B500B6013508A000D7
:100D20003608A1000A128A1107230A128A113130EB
:100D3000F3008930F4000A128A1576270A128A1104
:100D4000F301F30A02300A128A15EB260A128A11FD
:100D5000F730F3008830F4000A128A1576270A1259
:100D60008A1183120313BE01023083120313B700EA
:100D70000430B600B930B500B50BBC2EB60BBC2E96
:100D8000B70BBC2EC32E013083120313BE07C8302D
:100D90003E0203180800B42E83120313AC00A40112
:100DA000A50102302C02031808002C08F5000130C0
:100DB0000310F50DFF3E031DD82E0310750D123ED6
:100DC000840088300318013EFF000A128A150020B3
:100DD0000A128A11A0000A128A1500200A128A112A
:100DE000A1000A128A1500200A128A11A2000A1212
:100DF0008A1500200A128A11A3002008F500210894
:100E0000F6002208F7002308F8004908F5024A080E
:100E1000031C4A0F0C2F0D2FF6024B08031C4B0F1F
:100E2000122F132FF7024C08031C4C0F182F192FE9
:100E3000F8027808B0007708AF007608AE007508B1
:100E4000AD00B01B2C2F3008AB002F08AA002E08D5
:100E5000A9002D08A8003B2F2D09A8002E09A900E4
:100E60002F09AA003009AB00A80A0319A90A03191F
:100E7000AA0A0319AB0AFB308705B01B522F3008B2
:100E8000031D4E2F2F08031D4E2F2E08031D4E2F1E
:100E900001302D02031D4C2F031C522F831203130C
:100EA0008714562FFD308312031387058312031313
:100EB0002B082A0429042804031908000A128A1599
:100EC00096260A128A110130F5000030F600003033
:100ED000F7000030F800750883120313A8027608A3
:100EE000031C760F742F752FA9027708031C770F48
:100EF0007A2F7B2FAA027808031C780F802F812F6E
:100F0000AB02B01B922F3008031D982F2F08031D32
:100F1000982F2E08031D982F01302D02031D902FAE
:100F20000318982FFF3083120313A600FF309D2F64
:100F3000013083120313A6000030A7002608F50035
:100F40002708F6000030F61BFF30F700F8007508A0
:100F5000C907760803110318013E031DCA07770865
:100F600003110318013E031DCB0778080311031872
:100F7000013E031DCC070130A4070318A50A003069
:100F8000A5073230F0000030F1002508F3002408F6
:100F9000F2000A128A15A0270A128A117008710439
:100FA000031D562F0A128A111F200A128A110A12D3
:100FB0008A1575260A128A11003A0319562F0A1249
:100FC0008A11032008000A128A156E260A128A1155
:100FD000E3000A128A156F260A128A11E4000A1227
:100FE0008A1570260A128A11E500831344308400A2
:100FF00063300A128A15792683010A128A11212D7B
:10100000FF1B0A2883137F1883170008840A03191B
:10101000FF0A08007F087F398A000408840A031940
:10102000FF0A8200A0340F3400340034E0342E3440
:101030000034003448346F346D3469346E346734AE
:101040002E342E342E3420342034203420342034D6
:1010500020342034003453346F3469346C342034F9
:101060004F344B342D3453346B3469347034703412
:1010700069346E34673400345734613472346E34FA
:101080003A34203453346F3469346C342034573458
:10109000653474342034203400345734613472346D
:1010A0006E343A3420344834693467346834203438
:1010B000543465346D347034203400345734613422
:1010C00072346E343A3420344C346F3477342034F4
:1010D00057346134743465347234203400345734F6
:1010E000613472346E343A342034483469346734AD
:1010F000683420344334753472347234203400340C
:101100004C344F3443344B344F34553454342134FD
:101110004C346F34773457346134743465347234FA
:1011200000344C344F3443344B344F3455345434FE
:1011300021344F3476346534723477347434653402
:10114000723400344C344F3443344B344F345534C0
:10115000543421344F347634653472344334753426
:101160007234723400344C344F3443344B344F3483
:101170005534543421344F34763465347234683401
:101180006534613474340034353463346D34203460
:1011900020342034203420342034203420342034AF
:1011A0002034203420342034003444346534623414
:1011B000753467343A342034533465346E347334C0
:1011C00065342B34203420342034003450346834D7
:1011D0006F3474346F34203450346934703465346F
:1011E0006C3469346E346534203420340034503427
:1011F00069343A342034753470346C346F3461346B
:10120000643469346E3467342E342E342E34003412
:101210004D346F34763469346E34673420342D3471
:101220003E342034503400345734613474346534DF
:10123000723469346E3467342034503400344D34A1
:1012400061346E34753461346C343A342034503443
:10125000003444346F346E346534203420345034D8
:1012600000344334203420342034003425342034F6
:0E12700054343A340034203453343A340034C9
:101CDC0001340134193483160313061408008312DB
:101CEC0003135308080064008001840A04060319D6
:101CFC00003404067A2E831603130616831203137C
:101D0C00D301D2010130E300080024308316031301
:101D1C009800333099009030831203139800080018
:101D2C008312031307149A2E9B2EFE308312031377
:101D3C0087058530F000F00BA12E0800FE308312D1
:101D4C0003138705FD30870507150030CC000030E4
:101D5C00CB000030CA000030C9000800F100831627
:101D6C0003131808F00001300310F00CFF3E031DA4
:101D7C00BA2E701CB52E710883120313990008003B
:101D8C00F200AA300A128A15B4260A128A150230F9
:101D9C000A128A15B4260A128A1572080A128A15B2
:101DAC00B426080083160313051485140515843016
:101DBC009F003F30831203139F059F171F14103091
:101DCC00F000F00BE72E00000800F5007308031D6F
:101DDC00F12E0130F30011307302031CF72E10307A
:101DEC00F300023075060319FD2E0130F500750362
:101DFC00031D032F73087F3E052F7308BF3EF400AD
:101E0C0074080A128A11AE210800F401F501701C45
:101E1C00152F7208F4070318F50A7308F50701303B
:101E2C000310F20DF30DFF3E031D162F01300310AE
:101E3C00F10CF00CFF3E031D1D2F70087104031DE7
:101E4C000D2F7508F1007408F00008007808FA00EE
:101E5C007708F9007908003EFB007A080318013E68
:101E6C00FE3EFC00FC1F3F2FFB09FC09FB0A03197B
:101E7C00FC0A7C08F1007B08F0001A30F2000030FC
:101E8C00F3000A128A150B277108F8007008F70086
:101E9C000800F20072087002031C582F70087102BF
:101EAC000318602F71087002031C622F70087202F5
:101EBC00031C622F7008080070087202031C6A2F42
:101ECC00720871020318722F71087202031C742FAE
:101EDC0072087002031C742F720808007108080045
:101EEC00F501740883120313FF00730884000A12AF
:101EFC008A1500200A128A15003A031908001030BE
:101F0C007502031808007408FF00730884000A1295
:101F1C008A1500200A128A150A128A115C210A12EB
:101F2C008A150130F3070318F40A0030F407013066
:101F3C00F507772F700871040319CB2F0130F400CB
:101F4C00F11BB22F01300310F00DF10DFF3E031DFC
:101F5C00A92F0130F407A62F71087302031DB82FA7
:101F6C0070087202031CC02F7008F2027108031C67
:101F7C00F303F30201300310F10CF00CFF3E031DD0
:101F8C00C12F0130F402031DB22F7308F100720847
:101F9C00F0000800F700AA300A128A15B4260A12BB
:101FAC008A1501300A128A15B4260A128A15770886
:101FBC000A128A15B4260A128A1572080A128A1590
:101FCC00B4260A128A1573080A128A15B4260A1244
:101FDC008A1575080A128A15B4260A128A1574080D
:101FEC000A128A15B4260A128A1576080A128A155C
:041FFC00B4260800FF
:02400E00723FFF
:00000001FF
