:060000000A128A11E12F33
:1006520001341934FF3464008001840A040603194A
:10066200003404062D2B831203130C08F000003013
:100672008C1A0130013E3F2B0310F00CFF3E031D8C
:100682003D2B700801390800831203130C08F00097
:1006920000308C1A0130013E502B0310F00CFF3E4B
:1006A200031D4E2B701C452B1A080800F401730819
:1006B2008400831300080319080010307402031821
:1006C20008007308840000080A128A11B2240A1270
:1006D2008A110130F3070130F407582BF500730833
:1006E200031D752B0130F30011307302031C7B2BA9
:1006F2001030F300023075060319812B0130F5002A
:100702007503031D872B73087F3E892B7308BF3E39
:10071200F40074080A128A110425080083120313D4
:100722001808F00001300310F00CFF3E031D942B5B
:10073200701C08000130F0000030181A0130013E30
:10074200A42B0310F00DFF3E031DA22B7008FF3AED
:1007520098050130F0000030181A0130013EB32B29
:100762000310F00DFF3E031DB12B70089804080022
:10077200F501740883120313FF00730884000A1240
:100782008A1500200A128A11003A03190800103053
:100792007502031808007408FF00730884000A1227
:1007A2008A1500200A128A110A128A11B2240A1228
:1007B2008A110130F3070318F40A0030F4070130FC
:1007C200F507BA2BF7004230F3008930F4000A1221
:1007D2008A11B9230A128A117708F600043003102D
:1007E200F60CFF3E031DF02B7608263E840088306F
:1007F2000318013E83120313FF000A128A15002018
:100802000A128A110A128A11B2240A128A1177086C
:100812000F39263E840088300318013E83120313E9
:10082200FF000A128A1500200A128A110A128A117E
:10083200B2240800F501F31F252CF209F309F20A8C
:100842000319F30A0130F500F11F2C2CF009F1090C
:10085200F00A0319F10A700871040319572C0130C8
:10086200F400F11B3E2C01300310F00DF10DFF3EA0
:10087200031D352C0130F407322C71087302031D5D
:10088200442C70087202031C4C2C7008F20271088E
:10089200031CF303F30201300310F10CF00CFF3ED2
:1008A200031D4D2C0130F402031D3E2C7508031963
:1008B2005F2CF209F309F20A0319F30A7308F10033
:1008C2007208F00008000130F000003083160313B4
:1008D20018190130013E6F2C0310F00DFF3E031D6D
:1008E2006D2C700898040130F0000030181A0130A5
:1008F200013E7D2C0310F00DFF3E031D7B2C700882
:10090200FF3A98050130F0000030981A0130013E9C
:100912008C2C0310F00DFF3E031D8A2C70089804E6
:10092200333099000130F000003083120313981B1A
:100932000130013E9E2C0310F00DFF3E031D9C2C46
:10094200700898040130F0000030181A0130013E9E
:10095200AC2C0310F00DFF3E031DAA2C7008980466
:100962000800F20083120313551555088800F03071
:100972007205F00055080F397004D500550888003B
:10098200D515550888000630F000F00BC62C000083
:10099200F73083120313D505550888000630F0009E
:1009A200F00BD12C00007208F00004300310F00D9F
:1009B200FF3E031DD72CF0307005F10083120313A4
:1009C20055080F397104D50055088800D51555080A
:1009D20088000630F000F00BEC2C0000F730831298
:1009E2000313D505550888000630F000F00BF72CEC
:1009F20000000630F1003030F000F00BFE2CF10B5D
:100A0200FE2C00000800F200FB3083120313D50510
:100A120055088800F0307205F00055080F3970044F
:100A2200D50055088800D515550888000630F00015
:100A3200F00B192D0000F73083120313D50555086A
:100A420088000630F000F00B242D00007208F00040
:100A520004300310F00DFF3E031D2A2DF030700507
:100A6200F1008312031355080F397104D50055089C
:100A72008800D515550888000630F000F00B3F2D90
:100A82000000F73083120313D5055508880006309D
:100A9200F000F00B4A2D00000630F1003030F0007B
:100AA200F00B512DF10B512D00000800F501F11F43
:100AB200612DF009F109F00A0319F10A0130F5007C
:100AC200F31F6A2DF209F309F20A0319F30A01303E
:100AD200F506F601F7017008710403199F2D013024
:100AE200F400F11B7E2D01300310F00DF10DFF3EDD
:100AF200031D752D0130F407722D01300310F60D20
:100B0200F70DFF3E031D7F2D71087302031D8B2D10
:100B120070087202031C942D7008F2027108031C03
:100B2200F303F302761401300310F10CF00CFF3ED4
:100B3200031D952D0130F402031D7E2D7508031946
:100B4200A72DF609F709F60A0319F70A7708F10043
:100B52007608F000080083120313CC01F91FBC2DA4
:100B6200F809F909F80A0319F90A2D300A128A114B
:100B7200B2240A128A1178087904031DF02D30304C
:100B82000A128A11B2240800831203134C083D3E54
:100B920084000A30F0000030F1007908F300780890
:100BA200F2000A128A111B240A128A117008303EBE
:100BB20083138000013083120313CC070A30F00044
:100BC2000030F1007908F3007808F2000A128A1165
:100BD20057250A128A117108F9007008F80079087D
:100BE200803AFF0080307F02031DF92D0130780228
:100BF2000318C52D831203134C08CB00CC014B08FC
:100C02004C020318192E3D30FA004C08FA024B0828
:100C12007A07FB007B08FF3E840083130008FF0075
:100C22004C08443E84007F0880000130CC07002E2F
:100C32004B08443E8400831380014430F3000A12BF
:100C42008A1157230800FB30831603138805F730F7
:100C52008805EF308805DF308805BF3088057F3092
:100C620088053430F400F130F300F30B362EF40B28
:100C7200362E3B2EFB3083120313D5055508880010
:100C820055080F393038D50055088800D515550854
:100C920088000630F300F30B4C2E0000F73083126D
:100CA2000313D505550888000630F300F30B572EC1
:100CB20000000D30F400FB30F300F30B5E2EF40B5A
:100CC2005E2E632E8312031355080F393038D50078
:100CD20055088800D515550888000630F300F30B37
:100CE200702E0000F73083120313D50555088800D3
:100CF2000630F300F30B7B2E00000330F400973034
:100D0200F300F30B822EF40B822E872E8312031331
:100D120055080F393038D50055088800D5155508C3
:100D220088000630F300F30B942E0000F730831294
:100D32000313D505550888000630F300F30B9F2EE8
:100D420000000330F4009730F300F30BA62EF40BEF
:100D5200A62EAB2E8312031355080F392038D50067
:100D620055088800D515550888000630F300F30BA6
:100D7200B82E0000F73083120313D50555088800FA
:100D82000630F300F30BC32E00000330F40097305B
:100D9200F300F30BCA2EF40BCA2ECF2E28300A1200
:100DA2008A1104250A128A1108300A128A110425AE
:100DB2000A128A1101300A128A1104250A128A11B2
:100DC2000630F4003030F300F30BE52EF40BE52E81
:100DD200000006300A128A1104250A128A110C3008
:100DE2000A128A110425080083120313CD01CE01D1
:100DF200D101CF01D0018430831603139F00073045
:100E020085001B30860080308700880189017F3091
:100E12008105831203135508880007170A128A11E5
:100E220064240A128A110A128A118F230A128A1161
:100E32000A128A1124260A128A11F301F30A0130D6
:100E42000A128A116F230A128A11E130F3008830E4
:100E5200F4000A128A11B9230A128A11F301F30A61
:100E620002300A128A116F230A128A11F230F30039
:100E72008830F4000A128A11B9230A128A110A125E
:100E82008A118F230A128A110A128A1134230A1232
:100E92008A11003A0319402F0A128A1145230A12B5
:100EA2008A1183120313D2000130CD070318CE0A30
:100EB2000030CE077A2FBB305206031D852F01303A
:100EC200672F10305206031D692F0230D100852F83
:100ED200BB3052060319602FD101852FAA3052066A
:100EE200031D692F0130CF070318D00A0030D00745
:100EF2006D2F5108003A03195C2F013A0319622F32
:100F0200033A03196F2F6D2FF301F30A01300A120E
:100F12008A116F230A128A113C30F3008930F400DF
:100F22000A128A11B9230A128A1183120313520870
:100F32000A128A11E3230A128A113630F300893029
:100F4200F4000A128A11B9230A128A1183120313B6
:100F52004E08F9004D08F8000A128A11AC250A124F
:100F62008A112030F3008930F4000A128A11B92361
:100F72000A128A11F301F30A02300A128A116F234C
:100F82000A128A11831203134F0850040319372FD0
:100F92000330F3008930F4000A128A11B9230A12CD
:100FA2008A11831203135008F9004F08F8000A123D
:100FB2008A11AC250A128A111F30F30089303A2FA8
:100FC2000A128A1129230A128A11D3000A128A11DB
:100FD2002A230A128A11D4000A128A112B230A1216
:100FE2008A11D5008313203084003D300A128A1101
:100FF2002C23FC01FD0183010A128A11F52EFF1B2D
:101002000A2883137F1883170008840A0319FF0A2A
:1010120008007F087F398A000408840A0319FF0A3E
:101022008200A0340F3400340034E0342E34003413
:10103200003420344E340034003460346D340034D3
:101042000034A0348C34003400343034313432343F
:101052003334343435343634373438343934413433
:1010620042344334443445344634003448346F34D3
:101072006D3469346E3467342E342E342E34203479
:1010820020342034203420342034203400345334AB
:101092006F3469346C3420344F344B342D34533430
:1010A2006B3469347034703469346E3467340034AC
:1010B2005734613472346E343A34203453346F34DA
:1010C20069346C3420345734653474342034203419
:1010D20000345734613472346E343A342034483434
:1010E2006934673468342034543465346D34703470
:1010F200203400345734613472346E343A3420343C
:101102004C346F347734203457346134743465345A
:101112007234203400345734613472346E343A34C9
:1011220020344834693467346834203443347534A5
:1011320072347234203400344C344F3443344B34E0
:101142004F345534543421344C346F34773457345B
:10115200613474346534723400344C344F34433463
:101162004B344F345534543421344F34763465344F
:101172007234773474346534723400344C344F34FE
:1011820043344B344F345534543421344F34763451
:1011920065347234433475347234723400344C34EE
:1011A2004F3443344B344F345534543421344F3458
:1011B200763465347234683465346134743400349E
:1011C200543465347334743432343A3420344E3403
:1011D2006F34643465344D34433455342034203410
:1011E20000344E346F342034683461346E346434E5
:1011F2007334683461346B34653420347934653443
:1012020074340034483441344E3444345334483412
:1012120041344B344534203478340034573461340B
:1012220074346534723469346E3467342034503423
:10123200003420342034203420342034203420342C
:101242002034203400344D3461346E3475346134CA
:101252006C343A3420345034003444346F346E34B5
:1012620065342034203450340034203443346E3416
:1012720074343A3400344C346134733474343A3450
:081282000034303478340034EC
:02400E00723FFF
:00000001FF
